:100000000C942A000C9409010C9409010C94090128
:100010000C9409010C9409010C9409010C94090138
:100020000C9409010C9409010C9409010C94090128
:100030000C9409010C9409010C9409010C94090118
:100040000C9409010C9409010C9409010C94090108
:100050000C94090111241FBECFE5D8E0DEBFCDBF4F
:10006000E4E5F0E040E017C0B591A5913591259108
:10007000059107FD0CC095918591EF01F92FE82FAF
:1000800005900D92A217B307D9F7FE0104C01D9287
:10009000A217B307E1F7E435F40731F70E947F00B8
:0800A0000C945200F894FFCF0C
:1000A800CF93C82F0E94ED0080EA0E94C300C3B915
:1000B80084E886BF06B607FEFDCF81B1887F883207
:1000C80011F0803399F40E94ED0081EA0E94C30088
:1000D80084EC86BF06B607FEFDCF81B1887F8035E8
:1000E80039F4C3B10E9406018C2F03C083E001C01C
:0600F80082E0CF910895A3
:1000FE008FEF8ABB8FE19EE40197F1F700C00000FD
:10010E000E9402019FEF29E688E191502040804035
:10011E00E1F700C000006AEA8FEF90E00E94A600AF
:10012E009FEF29E688E1915020408040E1F700C022
:0E013E0000008FEF90E00E9454008BBBFFCFBB
:10014C00CF93DF93C82FD62F0E94ED0080EA0E9438
:10015C00C300C3B984E886BF06B607FEFDCF81B1E4
:10016C00887F883211F0803329F48D2F0E94DB00B8
:0A017C000E940601DF91CF91089563
:1001860083B984E886BF06B607FEFDCF81B1982FF6
:10019600987F983139F0903239F0807F803431F091
:1001A60082E0089580E0089580E0089580E0089553
:1001B60083B984E886BF06B607FEFDCF81B1887F86
:1001C600883221F0803321F083E0089580E008959D
:0401D60080E0089528
:1001DA0084EA86BF06B607FEFDCF91B1987F9830B4
:1001EA0029F081E0903119F480E0089580E00895C3
:0A01FA0092E190B9880F82B90895D0
:0802040083E00E94FD00089553
:06020C0084E986BF08959D
:040212000C94000048
:00000001FF
