:100000000C942E000C941D020C941D020C941D02E5
:100010000C941D020C941D020C941D020C941D02E4
:100020000C941D020C941D020C941D020C941D02D4
:100030000C941D020C941D020C941D020C941D02C4
:100040000C941D020C941D020C941D020C941D02B4
:100050000C941D020060007400043E0011241FBEB9
:10006000CFE5D8E0DEBFCDBFE4E5F0E040E017C06B
:10007000B591A59135912591059107FD0CC09591FC
:100080008591EF01F92FE82F05900D92A217B30784
:10009000D9F7FE0104C01D92A217B307E1F7EB35B3
:1000A000F40731F70E94B1010C945600F894FFCF89
:1000B000823019F118F4813039F008958330B1F1AC
:1000C000843009F44CC00895442359F02AB381E0E8
:1000D00090E002C0880F991F6A95E2F7822B8ABBD5
:1000E00008952AB381E090E002C0880F991F6A95B5
:1000F000E2F7809582238ABB0895442359F027B301
:1001000081E090E002C0880F991F6A95E2F7822B88
:1001100087BB089527B381E090E002C0880F991F44
:100120006A95E2F78095822387BB0895442359F0AE
:1001300024B381E090E002C0880F991F6A95E2F72E
:10014000822B84BB089524B381E090E002C0880F25
:10015000991F6A95E2F78095822384BB0895442312
:1001600059F021B381E090E002C0880F991F6A9591
:10017000E2F7822B81BB089521B381E090E002C0B9
:10018000880F991F6A95E2F78095822381BB0895B5
:100190008230A9F018F4813031F008958330D9F01D
:1001A000843029F108952BB381E090E002C0880FDC
:1001B000991F6A95E2F7809582238BBB089528B337
:1001C00081E090E002C0880F991F6A95E2F7809560
:1001D000822388BB089525B381E090E002C0880F98
:1001E000991F6A95E2F78095822385BB089522B313
:1001F00081E090E002C0880F991F6A95E2F7809530
:06020000822382BB089579
:100206008230A1F018F4813031F008958330C9F0BE
:10021600843011F108952BB381E090E002C0880F7D
:10022600991F6A95E2F7822B8BBB089528B381E06C
:1002360090E002C0880F991F6A95E2F7822B88BB6F
:10024600089525B381E090E002C0880F991F6A9552
:10025600E2F7822B85BB089522B381E090E002C0CD
:0E026600880F991F6A95E2F7822B82BB0895DC
:100274006FEF81E00E94CB018FEF8ABB8FE39CE993
:100284000197F1F700C0000041E061E082E00E94C4
:10029400580041E062E082E00E9458008FE19EE451
:1002A4000197F1F700C000000E94F1018FE19EE484
:1002B4000197F1F700C000000E94FC018FE19EE469
:0A02C4000197F1F700C00000089553
:1002CE00CF93DF93EC010E9412021BBA8FE99FE0DD
:1002DE000197F1F700C00000CC0FDD1FC05ADF4FB1
:1002EE00688181E00E94DE018FE99FE00197F1F7BE
:1002FE0000C000000E94F1018FE39FE10197F1F72A
:0A030E0000C00000DF91CF910895B8
:10031800CF93DF93EC010E9407021BBA8FE99FE09D
:100328000197F1F700C00000CC0FDD1FC05ADF4F66
:10033800688181E00E94DE018FE99FE00197F1F773
:1003480000C000000E94FC018FE39FE10197F1F7D4
:0A03580000C00000DF91CF9108956E
:100362000E943A012FEF89E698E1215080409040A7
:10037200E1F700C0000087B3866087BB88B3866060
:1003820088BB81E090E00E94670182E090E00E94D9
:040392008C01F7CF14
:10039600823059F018F4813031F00895833039F005
:1003A600843039F008956ABB089567BB089564BB2D
:0603B600089561BB0895EB
:1003BC00823059F018F4813031F00895833039F0DF
:1003CC00843039F008956BBB089568BB089565BB04
:0603DC00089562BB0895C4
:1003E20061E082E00E9403018FE39FE10197F1F750
:0603F20000C000000895A8
:1003F80062E082E00E9403018FE39FE10197F1F739
:0604080000C00000089591
:10040E0061E082E00E94C8008FE39FE10197F1F75F
:06041E0000C0000008957B
:1004240062E082E00E94C8008FE39FE10197F1F748
:0604340000C00000089565
:04043A000C9400001E
:10043E003F0006005B004F0066006D007D00070068
:04044E007F006F00BC
:00000001FF
