:100000000C942A000C94D0010C94D0010C94D001D3
:100010000C94D0010C94D0010C94D0010C94D0011C
:100020000C94D0010C94D0010C94D0010C94D0010C
:100030000C94D0010C94D0010C94D0010C94D001FC
:100040000C94D0010C94D0010C94D0010C94D001EC
:100050000C94D00111241FBECFE5D8E0DEBFCDBF88
:0C0060000E949C010C943400F894FFCF27
:10006C00823019F118F4813039F008958330B1F1F0
:10007C00843009F44CC00895442359F02AB381E02C
:10008C0090E002C0880F991F6A95E2F7822B8ABB19
:10009C0008952AB381E090E002C0880F991F6A95F9
:1000AC00E2F7809582238ABB0895442359F027B345
:1000BC0081E090E002C0880F991F6A95E2F7822BCD
:1000CC0087BB089527B381E090E002C0880F991F89
:1000DC006A95E2F78095822387BB0895442359F0F3
:1000EC0024B381E090E002C0880F991F6A95E2F773
:1000FC00822B84BB089524B381E090E002C0880F6A
:10010C00991F6A95E2F78095822384BB0895442356
:10011C0059F021B381E090E002C0880F991F6A95D5
:10012C00E2F7822B81BB089521B381E090E002C0FD
:10013C00880F991F6A95E2F78095822381BB0895F9
:10014C008230A9F018F4813031F008958330D9F061
:10015C00843029F108952BB381E090E002C0880F20
:10016C00991F6A95E2F7809582238BBB089528B37B
:10017C0081E090E002C0880F991F6A95E2F78095A4
:10018C00822388BB089525B381E090E002C0880FDC
:10019C00991F6A95E2F78095822385BB089522B357
:1001AC0081E090E002C0880F991F6A95E2F7809574
:0601BC00822382BB0895BE
:1001C2008230A1F018F4813031F008958330C9F003
:1001D200843011F108952BB381E090E002C0880FC2
:1001E200991F6A95E2F7822B8BBB089528B381E0B1
:1001F20090E002C0880F991F6A95E2F7822B88BBB4
:10020200089525B381E090E002C0880F991F6A9596
:10021200E2F7822B85BB089522B381E090E002C011
:0E022200880F991F6A95E2F7822B82BB089520
:100230008230A1F018F4813031F008958330C9F094
:10024000843011F108952BB381E090E002C0880F53
:10025000991F6A95E2F782278BBB089528B381E046
:1002600090E002C0880F991F6A95E2F7822788BB49
:10027000089525B381E090E002C0880F991F6A9528
:10028000E2F7822785BB089522B381E090E002C0A7
:0E029000880F991F6A95E2F7822782BB0895B6
:10029E008630D1F028F4823069F0833031F0089541
:1002AE00873069F08830A9F0089563E082E00E94FB
:1002BE001801089562E083E00E941801089567E036
:1002CE0083E00E941801089566E084E00E94180100
:1002DE00089563E082E00E94180162E083E00E94CC
:1002EE00180167E083E00E94180166E084E00E9436
:0402FE001801089546
:1003020060E082E00E94E1002FEF89E698E121504F
:1003120080409040E1F700C0000060E082E00E946F
:10032200A6002FEF89E698E1215080409040E1F746
:0603320000C00000089568
:100338000E94CA010E94B5010E94810183E00E94C7
:100348004F010E94810182E00E944F010E948101B9
:1003580087E00E944F010E94810186E00E944F01C0
:02036800EBCFD9
:10036A0041E063E082E00E94360041E062E083E01F
:10037A000E94360041E067E083E00E94360041E0D7
:0A038A0066E084E00E94360008954A
:0C03940041E060E082E00E943600089525
:0403A0000C940000B9
:00000001FF
