:100000000C942A000C94B9030C94B9030C94B90312
:100010000C94B9030C94B9030C94B9030C94B90370
:100020000C94B9030C94B9030C94B9030C94B90360
:100030000C94B9030C94B9030C94B9030C94B90350
:100040000C94B9030C94B9030C94B9030C94B90340
:100050000C94B90311241FBECFE5D8E0DEBFCDBF9D
:10006000E4E5F0E040E017C0B591A5913591259108
:10007000059107FD0CC095918591EF01F92FE82FAF
:1000800005900D92A217B307D9F7FE0104C01D9287
:10009000A217B307E1F7E435F40731F70E949D0298
:0800A0000C945200F894FFCF0C
:1000A800823019F118F4813039F008958330B1F1B4
:1000B800843009F44CC00895442359F02AB381E0F0
:1000C80090E002C0880F991F6A95E2F7822B8ABBDD
:1000D80008952AB381E090E002C0880F991F6A95BD
:1000E800E2F7809582238ABB0895442359F027B309
:1000F80081E090E002C0880F991F6A95E2F7822B91
:1001080087BB089527B381E090E002C0880F991F4C
:100118006A95E2F78095822387BB0895442359F0B6
:1001280024B381E090E002C0880F991F6A95E2F736
:10013800822B84BB089524B381E090E002C0880F2D
:10014800991F6A95E2F78095822384BB089544231A
:1001580059F021B381E090E002C0880F991F6A9599
:10016800E2F7822B81BB089521B381E090E002C0C1
:10017800880F991F6A95E2F78095822381BB0895BD
:100188000FC00E94930338F00E949A0320F0952331
:1001980011F00C94A8030C94B60311240C94A20338
:1001A8000E945E0270F3959FC1F3950F50E0551FB2
:1001B800629FF001729FBB27F00DB11D639FAA27B4
:1001C800F00DB11DAA1F649F6627B00DA11D661F03
:1001D800829F2227B00DA11D621F739FB00DA11D24
:1001E800621F839FA00D611D221F749F3327A00DDE
:1001F800611D231F849F600D211D822F762F6A2F7A
:1002080011249F5750409AF0F1F088234AF0EE0FDE
:10021800FF1FBB1F661F771F881F91505040A9F70B
:100228009E3F510580F00C94A8030C94A2035F3FF5
:10023800E4F3983ED4F3869577956795B795F79547
:10024800E7959F5FC1F7FE2B880F911D96958795BF
:0402580097F9089575
:10025C0041E064E081E00E94540041E065E081E00F
:10026C000E94540041E066E081E00E94540041E0AD
:10027C0067E081E00E94540041E062E082E00E946D
:10028C00540041E061E082E00E9454008FE39CE95D
:10029C000197F1F700C0000082E00E94B8028FE9DC
:1002AC009FE00197F1F700C0000088E20E94B802BD
:1002BC008FE99FE00197F1F700C000008CE00E94ED
:1002CC00B8028FE99FE00197F1F700C0000086E0CB
:1002DC000E94B8028FE99FE00197F1F700C000007F
:1002EC009FEF29EF80E0915020408040E1F700C063
:0402FC000000089561
:10030000E89409C097FB3EF49095809570956195AF
:100310007F4F8F4F9F4F9923A9F0F92F96E9BB2765
:100320009395F695879577956795B795F111F8CFE1
:10033000FAF4BB0F11F460FF1BC06F5F7F4F8F4F4C
:100340009F4F16C0882311F096E911C0772321F042
:100350009EE8872F762F05C0662371F096E8862FDA
:1003600070E060E02AF09A95660F771F881FDAF731
:0A037000880F9695879597F9089578
:10037A008230A9F018F4813031F008958330D9F031
:10038A00843029F108952BB381E090E002C0880FF0
:10039A00991F6A95E2F7809582238BBB089528B34B
:1003AA0081E090E002C0880F991F6A95E2F7809574
:1003BA00822388BB089525B381E090E002C0880FAC
:1003CA00991F6A95E2F78095822385BB089522B327
:1003DA0081E090E002C0880F991F6A95E2F7809544
:0603EA00822382BB08958E
:1003F0008230A1F018F4813031F008958330C9F0D3
:10040000843011F108952BB381E090E002C0880F91
:10041000991F6A95E2F7822B8BBB089528B381E080
:1004200090E002C0880F991F6A95E2F7822B88BB83
:10043000089525B381E090E002C0880F991F6A9566
:10044000E2F7822B85BB089522B381E090E002C0E1
:0E045000880F991F6A95E2F7822B82BB0895F0
:10045E000E94660288F09F5798F0B92F9927B751DE
:10046E00B0F0E1F0660F771F881F991F1AF0BA954A
:10047E00C9F714C0B13091F00E94A103B1E0089504
:10048E000C94A103672F782F8827B85F39F0B93FF6
:10049E00CCF3869577956795B395D9F73EF49095FD
:0E04AE008095709561957F4F8F4F9F4F0895F9
:1004BC0057FD9058440F551F59F05F3F71F0479509
:1004CC00880F97FB991F61F09F3F79F087950895EE
:1004DC00121613061406551FF2CF4695F1DF08C00D
:1004EC00161617061806991FF1CF8695710561052A
:0404FC0008940895C3
:10050000CF93DF93CDB7DEB72B970FB6F894DEBF4E
:100510000FBECDBF4AE0BE016F5F7F4F0E947303E5
:10052000CE0101960E9459032B960FB6F894DEBFB8
:0A0530000FBECDBFDF91CF910895FB
:10053A0040E067E080E10E9408030E942E010E94C9
:10054A00BD030E942A03EC010E94AE03CE010E9461
:10055A0080022FEF82E597E0215080409040E1F73A
:06056A0000C00000ECCF10
:10057000CF93C82F61E082E00E94BD018BB39C2F16
:10058000907F8F70892B8BBB0E944A032BB330E185
:10059000C39FC0011124922F9F70892B8BBB0E9497
:0605A0004A03CF9108950B
:1005A600CF93C82F61E082E00E94F8018BB39C2FA5
:1005B600907F8F70892B8BBB0E944A032BB330E14F
:1005C600C39FC0011124922F9F70892B8BBB0E9461
:0605D6004A03CF910895D5
:1005DC00BB27FB015527AA27880F991FAA1FA41711
:1005EC0010F0A41B83955051B9F7A05DAA3308F005
:1005FC00A95DA193009779F7B111B1931192CB0139
:04060C000C943A030D
:10061000CF93DF93D62FC42F0E947E038D2F0E948D
:1006200085038C2F0E9468030E94BB03DF91CF914A
:0206300008952B
:10063200092E0394000C11F4882352F0BB0F40F4EE
:10064200BF2B11F460FF04C06F5F7F4F8F4F9F4F2E
:02065200089509
:1006540064B175B180E090E00E9480012AE137E640
:100664004CE950E40E94B2030E948C03CB0108952C
:10067400DC01FC01672F71917723E1F7329704C005
:100684007C916D9370836291AE17BF07C8F3089590
:1006940062E082E00E94F8018FE19EE40197F1F7A5
:0E06A40000C0000062E082E00E94BD010895E7
:1006B200CF93DF93EC018881882331F021960E9449
:0E06C200D30289918111FBCFDF91CF91089572
:1006D00097B19F7397B927B130E4839FC00111246C
:0606E000822B87B908958A
:1006E600BB274A3031F4992322F4BDE290958195D7
:0606F6009F4F0C94EF027F
:0E06FC0097B1907E97B997B1892B87B9089571
:0E070A0096B1987F96B996B1892B86B908955D
:0E0718000E942F026894B1110C94A203089560
:0E07260000240A9416161706180609060895F0
:0E07340000240A9412161306140605060895F2
:0E074200E894BB2766277727CB0197F9089527
:0C07500097F99F6780E870E060E0089572
:08075C0081E00E94B80208953B
:080764000E94C4000C9419036B
:06076C009FEF80EC0895F0
:040772000C940000E3
:04077600379A089511
:04077A00369A08950E
:00000001FF
