:100000000C942A000C941D020C941D020C941D02E9
:100010000C941D020C941D020C941D020C941D02E4
:100020000C941D020C941D020C941D020C941D02D4
:100030000C941D020C941D020C941D020C941D02C4
:100040000C941D020C941D020C941D020C941D02B4
:100050000C941D0211241FBECFE5D8E0DEBFCDBF3A
:10006000E4E5F0E040E017C0B591A5913591259108
:10007000059107FD0CC095918591EF01F92FE82FAF
:1000800005900D92A217B307D9F7FE0104C01D9287
:10009000A217B307E1F7E435F40731F70E94FF0038
:0800A0000C945200F894FFCF0C
:1000A800823019F118F4813039F008958330B1F1B4
:1000B800843009F44CC00895442359F02AB381E0F0
:1000C80090E002C0880F991F6A95E2F7822B8ABBDD
:1000D80008952AB381E090E002C0880F991F6A95BD
:1000E800E2F7809582238ABB0895442359F027B309
:1000F80081E090E002C0880F991F6A95E2F7822B91
:1001080087BB089527B381E090E002C0880F991F4C
:100118006A95E2F78095822387BB0895442359F0B6
:1001280024B381E090E002C0880F991F6A95E2F736
:10013800822B84BB089524B381E090E002C0880F2D
:10014800991F6A95E2F78095822384BB089544231A
:1001580059F021B381E090E002C0880F991F6A9599
:10016800E2F7822B81BB089521B381E090E002C0C1
:10017800880F991F6A95E2F78095822381BB0895BD
:100188008230A9F018F4813031F008958330D9F025
:10019800843029F108952BB381E090E002C0880FE4
:1001A800991F6A95E2F7809582238BBB089528B33F
:1001B80081E090E002C0880F991F6A95E2F7809568
:1001C800822388BB089525B381E090E002C0880FA0
:1001D800991F6A95E2F78095822385BB089522B31B
:1001E80081E090E002C0880F991F6A95E2F7809538
:0601F800822382BB089582
:1001FE000E94080240E062E084E00E94540040E069
:10020E0063E084E00E94540040E067E084E00E94D6
:10021E00540062E084E00E946F01882321F083E0A5
:10022E000E94D60103C083E00E94A40163E084E033
:10023E000E946F01882321F082E00E94D60103C044
:10024E0082E00E94A40167E084E00E946F0188238F
:10025E0021F087E00E94D601DCCF87E00E94A40146
:02026E00D8CFE7
:100270008230A1F018F4813031F008958330C9F054
:10028000843011F108952BB381E090E002C0880F13
:10029000991F6A95E2F7822B8BBB089528B381E002
:1002A00090E002C0880F991F6A95E2F7822B88BB05
:1002B000089525B381E090E002C0880F991F6A95E8
:1002C000E2F7822B85BB089522B381E090E002C063
:0E02D000880F991F6A95E2F7822B82BB089572
:1002DE00823099F018F4813031F02DC08330B9F0AE
:1002EE008430F9F028C029B381E090E002C0880F75
:1002FE00991F6A95E2F78223089526B381E090E074
:10030E0002C0880F991F6A95E2F78223089523B3DE
:10031E0081E090E002C0880F991F6A95E2F7822370
:10032E00089520B381E090E002C0880F991F6A956E
:0A033E00E2F78223089580E008959D
:100348008630D1F028F4823069F0833031F0089596
:10035800873069F08830A9F0089563E082E00E9450
:100368003801089562E083E00E943801089567E04B
:1003780083E00E943801089566E084E00E94380115
:10038800089563E082E00E94380162E083E00E9401
:10039800380167E083E00E94380166E084E00E944B
:0403A800380108957B
:1003AC008630D1F028F4823069F0833031F0089532
:1003BC00873069F08830A9F0089563E082E00E94EC
:1003CC00C400089562E083E00E94C400089567E0D1
:1003DC0083E00E94C400089566E084E00E94C4009B
:1003EC00089563E082E00E94C40062E083E00E9412
:1003FC00C40067E083E00E94C40066E084E00E94D1
:04040C00C40008958B
:1004100041E063E082E00E94540041E062E083E05A
:100420000E94540041E067E083E00E94540041E0F4
:0A04300066E084E00E945400089585
:04043A000C9400001E
:00000001FF
