:100000000C942A000C94A4000C94A4000C94A4005A
:100010000C94A4000C94A4000C94A4000C94A400D0
:100020000C94A4000C94A4000C94A4000C94A400C0
:100030000C94A4000C94A4000C94A4000C94A400B0
:100040000C94A4000C94A4000C94A4000C94A400A0
:100050000C94A40011241FBECFE5D8E0DEBFCDBFB5
:10006000E4E5F0E040E017C0B591A5913591259108
:10007000059107FD0CC095918591EF01F92FE82FAF
:1000800005900D92A217B307D9F7FE0104C01D9287
:10009000A217B307E1F7E435F40731F70E947A00BD
:0800A0000C945200F894FFCF0C
:1000A80094EA96BF06B607FEFDCF91B1987F9830C7
:1000B800B9F483B984E886BF06B607FEFDCF81B1DF
:1000C800887F803479F484EC86BF06B607FEFDCFBE
:1000D80081B1887F803541F483B194E996BF089552
:0C00E80081E0089582E0089582E0089510
:1000F4008FEF8ABB2FEF89EF90E021508040904032
:10010400E1F700C0000083E00E949F002FEF80E72A
:1001140092E0215080409040E1F700C000008FE061
:100124000E9454008BBB2FEF80E792E02150804067
:0A0134009040E1F700C00000F6CF94
:0A013E0092E190B9880F82B908958C
:040148000C94000013
:00000001FF
