:100000000C942A000C9453020C9453020C94530247
:100010000C9453020C9453020C9453020C9453020C
:100020000C9453020C9453020C9453020C945302FC
:100030000C9453020C9453020C9453020C945302EC
:100040000C9453020C9453020C9453020C945302DC
:100050000C94530211241FBECFE5D8E0DEBFCDBF04
:10006000E4E5F0E040E017C0B591A5913591259108
:10007000059107FD0CC095918591EF01F92FE82FAF
:1000800005900D92A217B307D9F7FE0104C01D9287
:10009000A217B307E1F7E435F40731F70E94A00196
:0800A0000C945200F894FFCF0C
:1000A800823019F118F4813039F008958330B1F1B4
:1000B800843009F44CC00895442359F02AB381E0F0
:1000C80090E002C0880F991F6A95E2F7822B8ABBDD
:1000D80008952AB381E090E002C0880F991F6A95BD
:1000E800E2F7809582238ABB0895442359F027B309
:1000F80081E090E002C0880F991F6A95E2F7822B91
:1001080087BB089527B381E090E002C0880F991F4C
:100118006A95E2F78095822387BB0895442359F0B6
:1001280024B381E090E002C0880F991F6A95E2F736
:10013800822B84BB089524B381E090E002C0880F2D
:10014800991F6A95E2F78095822384BB089544231A
:1001580059F021B381E090E002C0880F991F6A9599
:10016800E2F7822B81BB089521B381E090E002C0C1
:10017800880F991F6A95E2F78095822381BB0895BD
:100188006FEF81E00E94D40141E060E082E00E94CC
:10019800540041E062E082E00E94540041E061E0E6
:1001A80082E00E94540061E082E00E9411018FE326
:1001B8009CE90197F1F700C000000E944F0288E314
:1001C8000E9428028FE99FE00197F1F700C0000024
:1001D8008CE00E9428028FE99FE00197F1F700C0A8
:1001E800000086E00E9428028FE99FE00197F1F75E
:1001F80000C0000082E00E9428028FE99FE001977A
:10020800F1F700C000009FEF29EF80E091502040F7
:0A0218008040E1F700C000000895E7
:100222008230A9F018F4813031F008958330D9F08A
:10023200843029F108952BB381E090E002C0880F49
:10024200991F6A95E2F7809582238BBB089528B3A4
:1002520081E090E002C0880F991F6A95E2F78095CD
:10026200822388BB089525B381E090E002C0880F05
:10027200991F6A95E2F78095822385BB089522B380
:1002820081E090E002C0880F991F6A95E2F780959D
:06029200822382BB0895E7
:100298008230A1F018F4813031F008958330C9F02C
:1002A800843011F108952BB381E090E002C0880FEB
:1002B800991F6A95E2F7822B8BBB089528B381E0DA
:1002C80090E002C0880F991F6A95E2F7822B88BBDD
:1002D800089525B381E090E002C0880F991F6A95C0
:1002E800E2F7822B85BB089522B381E090E002C03B
:0E02F800880F991F6A95E2F7822B82BB08954A
:10030600CF93DF93CDB7DEB72B970FB6F894DEBF4A
:100316000FBECDBF4AE0BE016F5F7F4F0E943E0217
:10032600CE0101960E9419022B960FB6F894DEBFF5
:0A0336000FBECDBFDF91CF910895F7
:100340000E94C400C4E6D0E00E944F0261E070E069
:1003500080E090E00E944902CE010E9483012FEFCD
:1003600083ED90E3215080409040E1F700C0000011
:040370002196EACF19
:10037400BB27FB015527AA27880F991FAA1FA4177B
:1003840010F0A41B83955051B9F7A05DAA3308F06F
:10039400A95DA193009779F7B111B1931192CB01A3
:0403A4000C94FA01BA
:1003A800823059F018F4813031F00895833039F0F3
:1003B800843039F008956ABB089567BB089564BB1B
:0603C800089561BB0895D9
:1003CE00823059F018F4813031F00895833039F0CD
:1003DE00843039F008956BBB089568BB089565BBF2
:0603EE00089562BB0895B2
:1003F400DC01FC01672F71917723E1F7329704C088
:100404007C916D9370836291AE17BF07C8F3089512
:1004140060E082E00E944C018FE19EE40197F1F7D5
:0E04240000C0000060E082E00E941101089517
:10043200CF93DF93EC018881882331F021960E94CB
:0E044200330289918111FBCFDF91CF91089594
:10045000682F81E00E94E70162E082E00E941101C2
:060460000E940A0208954B
:10046600682F81E00E94E70162E082E00E944C0171
:060476000E940A02089535
:10047C00BB274A3031F4992322F4BDE29095819543
:06048C009F4F0C94BB0120
:0C04920080E8860F80640E942802089514
:08049E0081E00E94280208958C
:0404A6000C940000B2
:00000001FF
