:100000000C942E000C9452020C9452020C94520246
:100010000C9452020C9452020C9452020C94520210
:100020000C9452020C9452020C9452020C94520200
:100030000C9452020C9452020C9452020C945202F0
:100040000C9452020C9452020C9452020C945202E0
:100050000C945202006000740004A80011241FBE1A
:10006000CFE5D8E0DEBFCDBFE4E5F0E040E017C06B
:10007000B591A59135912591059107FD0CC09591FC
:100080008591EF01F92FE82F05900D92A217B30784
:10009000D9F7FE0104C01D92A217B307E1F7EB35B3
:1000A000F40731F70E9467010C945600F894FFCFD3
:1000B000823019F118F4813039F008958330B1F1AC
:1000C000843009F44CC00895442359F02AB381E0E8
:1000D00090E002C0880F991F6A95E2F7822B8ABBD5
:1000E00008952AB381E090E002C0880F991F6A95B5
:1000F000E2F7809582238ABB0895442359F027B301
:1001000081E090E002C0880F991F6A95E2F7822B88
:1001100087BB089527B381E090E002C0880F991F44
:100120006A95E2F78095822387BB0895442359F0AE
:1001300024B381E090E002C0880F991F6A95E2F72E
:10014000822B84BB089524B381E090E002C0880F25
:10015000991F6A95E2F78095822384BB0895442312
:1001600059F021B381E090E002C0880F991F6A9591
:10017000E2F7822B81BB089521B381E090E002C0B9
:10018000880F991F6A95E2F78095822381BB0895B5
:100190008230A9F018F4813031F008958330D9F01D
:1001A000843029F108952BB381E090E002C0880FDC
:1001B000991F6A95E2F7809582238BBB089528B337
:1001C00081E090E002C0880F991F6A95E2F7809560
:1001D000822388BB089525B381E090E002C0880F98
:1001E000991F6A95E2F78095822385BB089522B313
:1001F00081E090E002C0880F991F6A95E2F7809530
:06020000822382BB089579
:100206008230A1F018F4813031F008958330C9F0BE
:10021600843011F108952BB381E090E002C0880F7D
:10022600991F6A95E2F7822B8BBB089528B381E06C
:1002360090E002C0880F991F6A95E2F7822B88BB6F
:10024600089525B381E090E002C0880F991F6A9552
:10025600E2F7822B85BB089522B381E090E002C0CD
:0E026600880F991F6A95E2F7822B82BB0895DC
:100274006FEF81E00E9404028FEF8ABB8FE39CE959
:100284000197F1F700C0000041E061E082E00E94C4
:10029400580041E062E082E00E9458008FE19EE451
:1002A4000197F1F700C000000E9441028FE19EE433
:1002B4000197F1F700C000000E943A028FE19EE42A
:0A02C4000197F1F700C00000089553
:1002CE000E943A012FEF89E698E12150804090403C
:1002DE00E1F700C0000087B3866087BB88B38660F5
:1002EE0088BB81E190E00E942A02C1E0D0E001E1EA
:1002FE0010E00BC0C8010E942A022196C436D10517
:10030E0021F40F5F1F4FC0E0D0E00436110594F3C7
:06031E0000E010E0EFCF4B
:10032400CF93DF93EC010E944D021BBA8FE193E05F
:100334000197F1F700C00000CC0FDD1FC05ADF4F5A
:10034400688181E00E9417028FE99FE00197F1F72D
:1003540000C000000E9441028FE193E00197F1F791
:0A03640000C00000DF91CF91089562
:10036E00CF93DF93EC010E9448021BBA8FE193E01A
:10037E000197F1F700C00000CC0FDD1FC05ADF4F10
:10038E00688181E00E9417028FE99FE00197F1F7E3
:10039E0000C000000E943A028FE193E00197F1F74E
:0A03AE0000C00000DF91CF91089518
:1003B80097FB072E16F4009407D077FD09D00E940A
:1003C800F00107FC05D03EF4909581959F4F089564
:0803D800709561957F4F0895B7
:1003E000AA1BBB1B51E107C0AA1FBB1FA617B7075B
:1003F00010F0A61BB70B881F991F5A95A9F7809577
:080400009095BC01CD010895A7
:10040800823059F018F4813031F00895833039F092
:10041800843039F008956ABB089567BB089564BBBA
:06042800089561BB089578
:10042E00823059F018F4813031F00895833039F06C
:10043E00843039F008956BBB089568BB089565BB91
:06044E00089562BB089551
:10045400CF93DF936AE070E00E94DC01EC01CB01F2
:100464000E949201CE010E94B701DF91CF910895BD
:0E0474000E94480262E082E00E9403010895A7
:0E0482000E944D0261E082E00E940301089595
:0A04900061E082E00E94C8000895B8
:0A049A0062E082E00E94C8000895AD
:0404A4000C940000B4
:1004A8003F0006005B004F0066006D007D000700FE
:0404B8007F006F0052
:00000001FF
