:100000000C942A000C94D6030C94D6030C94D603BB
:100010000C94D6030C94D6030C94D6030C94D603FC
:100020000C94D6030C94D6030C94D6030C94D603EC
:100030000C94D6030C94D6030C94D6030C94D603DC
:100040000C94D6030C94D6030C94D6030C94D603CC
:100050000C94D60311241FBECFE5D8E0DEBFCDBF80
:10006000E4E5F0E040E017C0B591A5913591259108
:10007000059107FD0CC095918591EF01F92FE82FAF
:1000800005900D92A217B307D9F7FE0104C01D9287
:10009000A217B307E1F7E435F40731F70E948903AB
:0800A0000C945200F894FFCF0C
:1000A80061E081E00E945B0262E081E00E945B0205
:1000B80063E081E00E945B028FE39CE90197F1F71E
:1000C80000C0000080B38C78843809F468C0883890
:1000D80009F4C8C08C3021F761E081E00E94D002A9
:1000E80062E081E00E94D0028FE39CE90197F1F77A
:1000F80000C00000879915C061E081E00E945B02A2
:1001080062E081E00E945B0263E081E00E945B02A2
:100118008FE39CE90197F1F700C0000089E090E0C7
:10012800089561E081E00E94D00262E081E00E94CF
:100138005B0263E081E00E94D0028FE39CE90197B3
:10014800F1F700C00000879915C061E081E00E94C6
:100158005B0262E081E00E945B0263E081E00E9452
:100168005B028FE39CE90197F1F700C0000086E08D
:1001780090E0089561E081E00E945B0262E081E026
:100188000E945B0263E081E00E945B028FE39CE9CE
:100198000197F1F700C0000083E090E0089561E066
:1001A80081E00E94D00262E081E00E94D0028FE3E9
:1001B8009CE90197F1F700C00000839915C061E040
:1001C80081E00E945B0262E081E00E945B0263E0E2
:1001D80081E00E945B028FE39CE90197F1F700C080
:1001E800000088E090E0089561E081E00E94D0027C
:1001F80062E081E00E945B0263E081E00E94D0023D
:100208008FE39CE90197F1F700C00000839915C0BE
:1002180061E081E00E945B0262E081E00E945B0293
:1002280063E081E00E945B028FE39CE90197F1F7AC
:1002380000C0000085E090E0089561E081E00E9440
:100248005B0262E081E00E945B0263E081E00E9461
:100258005B028FE39CE90197F1F700C0000082E0A0
:1002680090E0089561E081E00E94D00262E081E0C0
:100278000E94D0028FE39CE90197F1F700C00000CB
:10028800829915C061E081E00E945B0262E081E032
:100298000E945B0263E081E00E945B028FE39CE9BD
:1002A8000197F1F700C0000087E090E0089561E051
:1002B80081E00E94D00262E081E00E945B0263E07C
:1002C80081E00E94D0028FE39CE90197F1F700C01A
:1002D8000000829915C061E081E00E945B0262E043
:1002E80081E00E945B0263E081E00E945B028FE391
:1002F8009CE90197F1F700C0000084E090E00895C0
:1003080061E081E00E945B0262E081E00E945B02A2
:1003180063E081E00E945B028FE39CE90197F1F7BB
:0A03280000C0000081E090E008959D
:10033200823019F118F4813039F008958330B1F127
:10034200843009F44CC00895442359F02AB381E063
:1003520090E002C0880F991F6A95E2F7822B8ABB50
:1003620008952AB381E090E002C0880F991F6A9530
:10037200E2F7809582238ABB0895442359F027B37C
:1003820081E090E002C0880F991F6A95E2F7822B04
:1003920087BB089527B381E090E002C0880F991FC0
:1003A2006A95E2F78095822387BB0895442359F02A
:1003B20024B381E090E002C0880F991F6A95E2F7AA
:1003C200822B84BB089524B381E090E002C0880FA1
:1003D200991F6A95E2F78095822384BB089544238E
:1003E20059F021B381E090E002C0880F991F6A950D
:1003F200E2F7822B81BB089521B381E090E002C035
:10040200880F991F6A95E2F78095822381BB089530
:1004120041E064E081E00E94990141E065E081E011
:100422000E94990141E066E081E00E94990141E069
:1004320067E081E00E94990141E062E082E00E946F
:10044200990141E061E082E00E9499018FE39CE919
:100452000197F1F700C0000082E00E9424038FE9B7
:100462009FE00197F1F700C0000088E20E94240398
:100472008FE99FE00197F1F700C000008CE00E9435
:1004820024038FE99FE00197F1F700C0000086E0A6
:100492000E9424038FE99FE00197F1F700C000005A
:1004A2009FEF29EF80E0915020408040E1F700C0AB
:0404B20000000895A9
:1004B6008230A9F018F4813031F008958330D9F0F4
:1004C600843029F108952BB381E090E002C0880FB3
:1004D600991F6A95E2F7809582238BBB089528B30E
:1004E60081E090E002C0880F991F6A95E2F7809537
:1004F600822388BB089525B381E090E002C0880F6F
:10050600991F6A95E2F78095822385BB089522B3E9
:1005160081E090E002C0880F991F6A95E2F7809506
:06052600822382BB089550
:10052C0041E061E081E00E94990141E062E081E0FC
:10053C000E94990141E063E081E00E94990140E052
:10054C0062E084E00E94990140E063E084E00E9454
:10055C00990140E067E084E00E9499012FEF89EF58
:10056C0090E0215080409040E1F700C0000061E035
:10057C0081E00E945B0262E081E00E945B0263E02A
:10058C0081E00E945B028FE39CE90197F1F700C0C8
:04059C0000000895BE
:1005A0008230A1F018F4813031F008958330C9F021
:1005B000843011F108952BB381E090E002C0880FE0
:1005C000991F6A95E2F7822B8BBB089528B381E0CF
:1005D00090E002C0880F991F6A95E2F7822B88BBD2
:1005E000089525B381E090E002C0880F991F6A95B5
:1005F000E2F7822B85BB089522B381E090E002C030
:0E060000880F991F6A95E2F7822B82BB08953E
:10060E00CF93DF93CDB7DEB72B970FB6F894DEBF3F
:10061E000FBECDBF4AE0BE016F5F7F4F0E94CB037E
:10062E00CE0101960E94BC032B960FB6F894DEBF46
:0A063E000FBECDBFDF91CF910895EC
:10064800CF93C82F61E082E00E945B028BB39C2F9E
:10065800907F8F70892B8BBB0E94AD032BB330E149
:10066800C39FC0011124922F9F70892B8BBB0E94BE
:06067800AD03CF910895CF
:10067E00CF93C82F61E082E00E94D0028BB39C2FF3
:10068E00907F8F70892B8BBB0E94AD032BB330E113
:10069E00C39FC0011124922F9F70892B8BBB0E9488
:0606AE00AD03CF91089599
:1006B400BB27FB015527AA27880F991FAA1FA41738
:1006C40010F0A41B83955051B9F7A05DAA3308F02C
:1006D400A95DA193009779F7B111B1931192CB0160
:0406E4000C949D03D2
:1006E80041E063E082E00E94990141E062E083E03A
:1006F8000E94990141E067E083E00E94990141E08E
:0A07080066E084E00E949901089564
:100712000E9474030E9409020E9496020E945400E1
:100722000E9407032FEF83EC99E021508040904014
:08073200E1F700C00000F2CF66
:10073A00DC01FC01672F71917723E1F7329704C03E
:10074A007C916D9370836291AE17BF07C8F30895C9
:10075A0062E082E00E94D0028FE19EE40197F1F705
:0E076A0000C0000062E082E00E945B02089581
:10077800CF93DF93EC018881882331F021960E9482
:0E0788003F0389918111FBCFDF91CF9108953E
:10079600BB274A3031F4992322F4BDE29095819526
:0607A6009F4F0C945B0361
:0407AC000C940000A9
:00000001FF
