:100000000C942D000C9475030C9475030C947503DB
:100010000C9475030C9475030C9475030C94720383
:100020000C9475030C9475030C9475030C94750370
:100030000C9475030C9475030C9475030C94750360
:100040000C9475030C9475030C9475030C94750350
:100050000C94750300600094800011241FBECFE54E
:10006000D8E0DEBFCDBFE4E5F0E040E017C0B591D9
:10007000A59135912591059107FD0CC0959185912C
:10008000EF01F92FE82F05900D92A217B307D9F7CA
:10009000FE0104C01D92A217B307E1F7E935F4078A
:0E00A00031F70E94E8020C945500F894FFCF4F
:1000AE00EF92FF920F931F93CF93DF938091900067
:1000BE00811104C1C0918800D09189007E018FEF1B
:1000CE00E81AF80AF0928900E0928800E114F1042F
:1000DE00B9F480918C0090918D0020918A0030911E
:1000EE008B0030938D0020938C0090938B00809327
:1000FE008A00809191008F5F809391000E94180377
:10010E008091840090918500E816F90610F480E045
:10011E00B9C080E061E0E0918C00F0918D0090819B
:10012E00911107C02FEF3FEF30938500209384008D
:10013E00A9C0E0918C00F0918D000580F681E02D34
:10014E000680F781E02D22813381E216F30628F432
:10015E00309385002093840095C0A285B3852481B9
:10016E00358146815781E9015D834C832681378134
:10017E0044815581E9015B834A83AF014E5F5F4F36
:10018E0011962D913C9112972417350731F4268143
:10019E00378112963C932E931197138612869C915B
:1001AE0091509C93A489B589109719F126853785AE
:1001BE0000891189E9011D830C8320893189068507
:1001CE001785E9011B830A8311960D911C911297D5
:1001DE009F01245F3F4F0217130731F420893189A5
:1001EE0012963C932E931197158A148A9C919150D6
:1001FE009C93268990919300921710F4209393006C
:10020E0030E0D901AA0FBB1FAA0FBB1FAA0FBB1F3D
:10021E002A0F3B1FD901A05ABF4F11960D90BC91CA
:10022E00A02DB583A48314962D913C9115973783F9
:10023E00268314962D913C911597E9015B834A8391
:10024E0015965C934E931497A689B0E09D01220FEC
:10025E00331F220F331F220F331FA20FB31FA05ABB
:10026E00BF4FB387A2879C919F5F9C93A0918E00F6
:10027E00B0918F00268956969C91921708F04BCF1D
:10028E00862F49CFE0918E00F0918F00268930E0C5
:10029E00F901EE0FFF1FEE0FFF1FEE0FFF1F2E0FC8
:1002AE003F1FF901E05AFF4F9081923008F081E034
:1002BE0090919200992361F081E00AC080918600AE
:1002CE00909187000196909387008093860080E03E
:0E02DE00DF91CF911F910F91FF90EF90089547
:1002EC0080919000882321F081E080939200089502
:1002FC001092920020919300822F90E0FC01EE0F5F
:10030C00FF1FEE0FFF1FEE0FFF1FE80FF91FE05A44
:10031C00FF4F3081311111C02150822F90E0FC0130
:10032C00EE0FFF1FEE0FFF1FEE0FFF1FE80FF91F61
:10033C00E05AFF4F3081332379F3AC01440F551F42
:10034C00440F551F440F551F480F591FFA01E05A0F
:10035C00FF4FA181B28112966D917C91139772839C
:10036C0061834D595F4F6417750779F4FC01EE0FEB
:10037C00FF1FEE0FFF1FEE0FFF1FE80FF91FE05AD4
:10038C00FF4F4581568152834183FC01EE0FFF1FC5
:10039C00EE0FFF1FEE0FFF1F8E0F9F1FFC01E05A89
:1003AC00FF4F0180F281E02D8681978190938F0021
:1003BC0080938E002093930080918E0090918F00FB
:0203CC00089592
:1003CE00823019F118F4813039F008958330B1F18B
:1003DE00843009F44CC00895442359F02AB381E0C7
:1003EE0090E002C0880F991F6A95E2F7822B8ABBB4
:1003FE0008952AB381E090E002C0880F991F6A9594
:10040E00E2F7809582238ABB0895442359F027B3DF
:10041E0081E090E002C0880F991F6A95E2F7822B67
:10042E0087BB089527B381E090E002C0880F991F23
:10043E006A95E2F78095822387BB0895442359F08D
:10044E0024B381E090E002C0880F991F6A95E2F70D
:10045E00822B84BB089524B381E090E002C0880F04
:10046E00991F6A95E2F78095822384BB08954423F1
:10047E0059F021B381E090E002C0880F991F6A9570
:10048E00E2F7822B81BB089521B381E090E002C098
:10049E00880F991F6A95E2F78095822381BB089594
:1004AE000F920FB6F8940F921F9211242F923F9233
:1004BE004F925F926F927F928F929F92AF92BF9266
:1004CE00CF92DF92EF92FF920F931F932F933F9352
:1004DE004F935F936F937F938F939F93AF93BF933E
:1004EE00CF93DF93EF93FF93A0918E00B0918F0087
:1004FE000DB60D920EB60D920E94570081110E94FC
:10050E007601A0918E00B0918F00CD91CDBFDD917F
:10051E00DEBFFF91EF91DF91CF91BF91AF919F9190
:10052E008F917F916F915F914F913F912F911F917D
:10053E000F91FF90EF90DF90CF90BF90AF909F9074
:10054E008F907F906F905F904F903F902F901F9065
:08055E000F900FBE0F900895ED
:10056600823099F018F4813031F02DC08330B9F023
:100576008430F9F028C029B381E090E002C0880FEA
:10058600991F6A95E2F78223089526B381E090E0E9
:1005960002C0880F991F6A95E2F78223089523B354
:1005A60081E090E002C0880F991F6A95E2F78223E6
:1005B600089520B381E090E002C0880F991F6A95E4
:0A05C600E2F78223089580E0089513
:1005D0006FEF81E00E9434030E94470387E090E0C0
:1005E0000E946B038BBB81E00E945703892B61F053
:1005F0008BB38F5F8BBB2FEF83EC99E02150804052
:100600009040E1F700C0000080E00E945703892B72
:1006100051F36BB387E090E00E9463032FEF83EC0C
:1006200099E0215080409040E1F700C00000DBCF0E
:10063000E0918C00F0918D008081811107C08FEFD7
:100640009FEF90938500809384000895E0918C0043
:10065000F0918D000580F681E02D8081918190934D
:080660008500809384000895D9
:10066800823059F018F4813031F00895833039F030
:10067800843039F008956ABB089567BB089564BB58
:06068800089561BB089516
:10068E0040E060E084E00E94E70140E061E084E049
:10069E000E94E70140E067E084E00E94E7010895D0
:1006AE00682F84E00E94B30221E030E0811102C085
:0806BE0020E030E0C9010895BD
:1006C600E199FECF9FBB8EBB6DBBE29AE19A08957E
:0E06D600E199FECF9FBB8EBBE09A8DB30895D5
:0606E4000E945702189568
:0406EA000C9400006C
:00000001FF
