:100000000C942A000C947F000C947F000C947F00C9
:100010000C947F000C947F000C947F000C947F0064
:100020000C947F000C947F000C947F000C947F0054
:100030000C947F000C947F000C947F000C947F0044
:100040000C947F000C947F000C947F000C947F0034
:100050000C947F0011241FBECFE5D8E0DEBFCDBFDA
:0C0060000E9470000C943400F894FFCF54
:10006C00613069F447B321E030E0B90102C0660F9A
:10007C00771F8A95E2F7CB01842B87BB089547B392
:10008C0021E030E0B90102C0660F771F8A95E2F7D4
:0A009C00CB018095842387BB0895F3
:1000A600613069F448B321E030E0B90102C0660F5F
:1000B600771F8A95E2F7CB01842B88BB089548B356
:1000C60021E030E0B90102C0660F771F8A95E2F79A
:0A00D600CB018095842388BB0895B8
:0A00E0000E9475000E947A00FDCF17
:0A00EA0061E080E00E9436000895F6
:0A00F40061E080E00E9453000895CF
:0400FE000C9400005E
:00000001FF
