:100000000C942D000C94EC030C94EC030C94EC0376
:100010000C94EC030C94EC030C94EC030C94EC03A4
:100020000C94EC030C94EC030C949D010C94EC03E5
:100030000C94EC030C94EC030C94EC030C94EC0384
:100040000C94EC030C94EC030C94EC030C94EC0374
:100050000C94EC0300600068800011241FBECFE503
:10006000D8E0DEBFCDBFE4E5F0E040E017C0B591D9
:10007000A59135912591059107FD0CC0959185912C
:10008000EF01F92FE82F05900D92A217B307D9F7CA
:10009000FE0104C01D92A217B307E1F7E935F4078A
:0E00A00031F70E9430030C945500F894FFCF06
:1000AE00823019F118F4813039F008958330B1F1AE
:1000BE00843009F44CC00895442359F02AB381E0EA
:1000CE0090E002C0880F991F6A95E2F7822B8ABBD7
:1000DE0008952AB381E090E002C0880F991F6A95B7
:1000EE00E2F7809582238ABB0895442359F027B303
:1000FE0081E090E002C0880F991F6A95E2F7822B8B
:10010E0087BB089527B381E090E002C0880F991F46
:10011E006A95E2F78095822387BB0895442359F0B0
:10012E0024B381E090E002C0880F991F6A95E2F730
:10013E00822B84BB089524B381E090E002C0880F27
:10014E00991F6A95E2F78095822384BB0895442314
:10015E0059F021B381E090E002C0880F991F6A9593
:10016E00E2F7822B81BB089521B381E090E002C0BB
:10017E00880F991F6A95E2F78095822381BB0895B7
:10018E0010C00E94CD0358F00E94C60340F029F41F
:10019E005F3F29F00C94DB0351110C94D5030C94A2
:1001AE00E9030E94540368F39923B1F3552391F3A5
:1001BE00951B550BBB27AA2762177307840738F0C8
:1001CE009F5F5F4F220F331F441FAA1FA9F335D025
:1001DE000E2E3AF0E0E832D091505040E695001CD9
:1001EE00CAF72BD0FE2F29D0660F771F881FBB1F93
:1001FE00261737074807AB07B0E809F0BB0B802D71
:10020E00BF01FF2793585F4F3AF09E3F510578F09C
:10021E000C94DB030C94D5035F3FE4F3983ED4F3C8
:10022E00869577956795B795F7959F5FC9F7880F70
:10023E00911D9695879597F90895E1E0660F771FC2
:10024E00881FBB1F621773078407BA0720F0621B53
:0E025E00730B840BBA0BEE1F88F7E095089522
:10026C0011C00E94C60338F00E94CD0320F039F46F
:10027C009F3F19F426F40C94E9030EF4E095E7FB88
:10028C000C94DB03E92F0E94540358F3BA1762074E
:10029C0073078407950720F079F4A6F50C94D40322
:1002AC000EF4E0950B2EBA2FA02D0B01B901900185
:1002BC000C01CA01A0011124FF27591B99F0593FC9
:1002CC0050F4503E68F11A16F040A22F232F342F11
:1002DC004427585FF3CF469537952795A795F0405F
:1002EC005395C9F77EF41F16BA0B620B730B840B74
:1002FC00BAF09150A1F0FF0FBB1F661F771F881F2C
:10030C00C2F70EC0BA0F621F731F841F48F4879583
:10031C0077956795B795F7959E3F08F0B0CF939575
:0E032C00880F08F09927EE0F97958795089592
:10033A001F920F920FB60F9211248F939F93809161
:10034A00660090916700019690936700809366001B
:10035A008D379105B9F580916400909165000196F9
:10036A008C33910529F0909365008093640026C030
:10037A00109265001092640080916200909163006F
:10038A0001968C33910529F0909363008093620063
:10039A0015C01092630010926200809160009091E3
:1003AA00610001968831910529F09093610080934C
:1003BA00600004C010926100109260001092670001
:1003CA00109266009F918F910F900FBE0F901F9011
:0203DA00189574
:1003DC00E89409C097FB3EF49095809570956195D3
:1003EC007F4F8F4F9F4F9923A9F0F92F96E9BB2789
:1003FC009395F695879577956795B795F111F8CF05
:10040C00FAF4BB0F11F460FF1BC06F5F7F4F8F4F6F
:10041C009F4F16C0882311F096E911C0772321F065
:10042C009EE8872F762F05C0662371F096E8862FFD
:10043C0070E060E02AF09A95660F771F881FDAF754
:0A044C00880F9695879597F908959B
:100456008230A9F018F4813031F008958330D9F054
:10046600843029F108952BB381E090E002C0880F13
:10047600991F6A95E2F7809582238BBB089528B36E
:1004860081E090E002C0880F991F6A95E2F7809597
:10049600822388BB089525B381E090E002C0880FCF
:1004A600991F6A95E2F78095822385BB089522B34A
:1004B60081E090E002C0880F991F6A95E2F7809567
:0604C600822382BB0895B1
:1004CC008230A1F018F4813031F008958330C9F0F6
:1004DC00843011F108952BB381E090E002C0880FB5
:1004EC00991F6A95E2F7822B8BBB089528B381E0A4
:1004FC0090E002C0880F991F6A95E2F7822B88BBA7
:10050C00089525B381E090E002C0880F991F6A9589
:10051C00E2F7822B85BB089522B381E090E002C004
:0E052C00880F991F6A95E2F7822B82BB089513
:10053A008630D1F028F4823069F0833031F00895A2
:10054A00873069F08830A9F0089563E082E00E945C
:10055A006602089562E083E00E946602089567E0F9
:10056A0083E00E946602089566E084E00E946602C3
:10057A00089563E082E00E94660262E083E00E94DE
:10058A00660267E083E00E94660266E084E00E94F9
:04059A006602089558
:10059E008630D1F028F4823069F0833031F008953E
:1005AE00873069F08830A9F0089563E082E00E94F8
:1005BE002B02089562E083E00E942B02089567E00B
:1005CE0083E00E942B02089566E084E00E942B02D5
:1005DE00089563E082E00E942B0262E083E00E94B5
:1005EE002B0267E083E00E942B0266E084E00E940B
:0405FE002B0208952F
:100602000E945C0388F09F5798F0B92F9927B75141
:10061200B0F0E1F0660F771F881F991F1AF0BA95A4
:10062200C9F714C0B13091F00E94D403B1E008952B
:100632000C94D403672F782F8827B85F39F0B93F1D
:10064200CCF3869577956795B395D9F73EF4909557
:0E0652008095709561957F4F8F4F9F4F089553
:100660000E94920380E895E20E9476030E94E103D3
:10067000823469F018F4813431F00CC0813619F0FD
:10068000823629F007C088E00E949D0203C088E0FE
:100690000E94CF022FEF85EA9EE0215080409040DB
:0806A000E1F700C00000E2CF09
:1006A80057FD9058440F551F59F05F3F71F047951B
:1006B800880F97FB991F61F09F3F79F08795089500
:1006C800121613061406551FF2CF4695F1DF08C01F
:1006D800161617061806991FF1CF8695710561053C
:0406E80008940895D5
:1006EC00BC01990F880B990B0E94F0019B01AC0186
:1006FC0060E074E284E799E40E94E50320E030E0D6
:10070C0040E85FE30E94B8030E94BF0369B970BD63
:08071C008AB188618AB90895D1
:1007240041E063E082E00E94570041E062E083E040
:100734000E94570041E067E083E00E94570041E0D7
:0A07440066E084E00E94570008956B
:10074E00092E0394000C11F4882352F0BB0F40F4D1
:10075E00BF2B11F460FF04C06F5F7F4F8F4F9F4F11
:02076E000895EC
:0E0770005058BB27AA270E9436010C94A703FD
:0E077E000E9401036894B1110C94D5030895F4
:0E078C0000240A94161617061806090608958A
:0E079A0000240A94121613061406050608958C
:0E07A800E894BB2766277727CB0197F90895C1
:0C07B60097F99F6780E870E060E008950C
:0807C2005F9BFECF8CB108958E
:0807CA000E94C7000C94A70374
:0607D2009FEF80EC08958A
:0407D8000C9400007D
:00000001FF
