:100000000C942A000C9411010C9411010C94110110
:100010000C9411010C9411010C9411010C94110118
:100020000C9411010C9411010C9411010C94110108
:100030000C9411010C9411010C9411010C941101F8
:100040000C9411010C9411010C9411010C941101E8
:100050000C94110111241FBECFE5D8E0DEBFCDBF47
:10006000E4E5F0E040E017C0B591A5913591259108
:10007000059107FD0CC095918591EF01F92FE82FAF
:1000800005900D92A217B307D9F7FE0104C01D9287
:10009000A217B307E1F7E435F40731F70E94F20045
:0800A0000C945200F894FFCF0C
:1000A800823019F118F4813039F008958330B1F1B4
:1000B800843009F44CC00895442359F02AB381E0F0
:1000C80090E002C0880F991F6A95E2F7822B8ABBDD
:1000D80008952AB381E090E002C0880F991F6A95BD
:1000E800E2F7809582238ABB0895442359F027B309
:1000F80081E090E002C0880F991F6A95E2F7822B91
:1001080087BB089527B381E090E002C0880F991F4C
:100118006A95E2F78095822387BB0895442359F0B6
:1001280024B381E090E002C0880F991F6A95E2F736
:10013800822B84BB089524B381E090E002C0880F2D
:10014800991F6A95E2F78095822384BB089544231A
:1001580059F021B381E090E002C0880F991F6A9599
:10016800E2F7822B81BB089521B381E090E002C0C1
:10017800880F991F6A95E2F78095822381BB0895BD
:100188009DB193609DB99DB140E1849F9001112478
:10019800292B2DB9882391F08130A9F441E065E03D
:1001A80082E00E94540041E064E082E00E94540032
:1001B80041E067E082E00E94540005C041E066E04B
:1001C80082E00E9454008FEF91EE24E0815090402D
:0C01D8002040E1F700C000006E9A08957E
:1001E40081E00E94C4002FEF81EE94E02150804012
:1001F4009040E1F700C00000C0E02FEF83EC99E0ED
:10020400215080409040E1F700C000008C2F0E94F4
:060214000D01CF5FF2CFE7
:08021A008FB9779BFECF089518
:040222000C94000038
:00000001FF
