:100000000C942A000C942D010C9477010C94770128
:100010000C9477010C9477010C9477010C94770180
:100020000C9477010C9477010C9477010C94770170
:100030000C9477010C9477010C9477010C94770160
:100040000C9477010C9477010C9477010C94770150
:100050000C94770111241FBECFE5D8E0DEBFCDBFE1
:10006000E4E5F0E040E017C0B591A5913591259108
:10007000059107FD0CC095918591EF01F92FE82FAF
:1000800005900D92A217B307D9F7FE0104C01D9287
:10009000A217B307E1F7E435F40731F70E947201C4
:0800A0000C945200F894FFCF0C
:1000A800823019F118F4813039F008958330B1F1B4
:1000B800843009F44CC00895442359F02AB381E0F0
:1000C80090E002C0880F991F6A95E2F7822B8ABBDD
:1000D80008952AB381E090E002C0880F991F6A95BD
:1000E800E2F7809582238ABB0895442359F027B309
:1000F80081E090E002C0880F991F6A95E2F7822B91
:1001080087BB089527B381E090E002C0880F991F4C
:100118006A95E2F78095822387BB0895442359F0B6
:1001280024B381E090E002C0880F991F6A95E2F736
:10013800822B84BB089524B381E090E002C0880F2D
:10014800991F6A95E2F78095822384BB089544231A
:1001580059F021B381E090E002C0880F991F6A9599
:10016800E2F7822B81BB089521B381E090E002C0C1
:10017800880F991F6A95E2F78095822381BB0895BD
:100188008230A1F018F4813031F008958330C9F03D
:10019800843011F108952BB381E090E002C0880FFC
:1001A800991F6A95E2F782278BBB089528B381E0EF
:1001B80090E002C0880F991F6A95E2F7822788BBF2
:1001C800089525B381E090E002C0880F991F6A95D1
:1001D800E2F7822785BB089522B381E090E002C050
:0E01E800880F991F6A95E2F7822782BB08955F
:1001F6008630D1F028F4823069F0833031F00895EA
:10020600873069F08830A9F0089563E082E00E94A3
:10021600C400089562E083E00E94C400089567E088
:1002260083E00E94C400089566E084E00E94C40052
:10023600089563E082E00E94C40062E083E00E94C9
:10024600C40067E083E00E94C40066E084E00E9488
:04025600C400089543
:10025A001F920F920FB60F9211242F933F934F9331
:10026A005F936F937F938F939F93AF93BF93EF9314
:10027A00FF9388E00E94FB00FF91EF91BF91AF913D
:10028A009F918F917F916F915F914F913F912F91A4
:0A029A000F900FBE0F901F901895F3
:1002A40041E063E082E00E94540041E062E083E0C8
:1002B4000E94540041E067E083E00E94540041E062
:0A02C40066E084E00E9454000895F3
:1002CE0085B7816085BF85B7826085BF8BB7806437
:0602DE008BBF7894089527
:0A02E4000E9452010E946701FFCF43
:0402EE000C9400006C
:00000001FF
