:100000000C942D000C949F010C949F010C949F0163
:100010000C949F010C949F010C949F010C949F01E0
:100020000C949F010C949F010C949F010C94FE0072
:100030000C949F010C949F010C949F010C949F01C0
:100040000C949F010C949F010C949F010C949F01B0
:100050000C949F0100600062800011241FBECFE558
:10006000D8E0DEBFCDBFE4E5F0E040E017C0B591D9
:10007000A59135912591059107FD0CC0959185912C
:10008000EF01F92FE82F05900D92A217B307D9F7CA
:10009000FE0104C01D92A217B307E1F7E935F4078A
:0E00A00031F70E9497010C945500F894FFCFA1
:1000AE00823019F118F4813039F008958330B1F1AE
:1000BE00843009F44CC00895442359F02AB381E0EA
:1000CE0090E002C0880F991F6A95E2F7822B8ABBD7
:1000DE0008952AB381E090E002C0880F991F6A95B7
:1000EE00E2F7809582238ABB0895442359F027B303
:1000FE0081E090E002C0880F991F6A95E2F7822B8B
:10010E0087BB089527B381E090E002C0880F991F46
:10011E006A95E2F78095822387BB0895442359F0B0
:10012E0024B381E090E002C0880F991F6A95E2F730
:10013E00822B84BB089524B381E090E002C0880F27
:10014E00991F6A95E2F78095822384BB0895442314
:10015E0059F021B381E090E002C0880F991F6A9593
:10016E00E2F7822B81BB089521B381E090E002C0BB
:10017E00880F991F6A95E2F78095822381BB0895B7
:10018E008230A1F018F4813031F008958330C9F037
:10019E00843011F108952BB381E090E002C0880FF6
:1001AE00991F6A95E2F782278BBB089528B381E0E9
:1001BE0090E002C0880F991F6A95E2F7822788BBEC
:1001CE00089525B381E090E002C0880F991F6A95CB
:1001DE00E2F7822785BB089522B381E090E002C04A
:0E01EE00880F991F6A95E2F7822782BB089559
:1001FC001F920F920FB60F9211242F933F934F9390
:10020C005F936F937F938F939F93AF93BF93EF9372
:10021C00FF93809160009091610001969093610032
:10022C0080936000CD9739F483E00E9432011092E4
:10023C00610010926000FF91EF91BF91AF919F917F
:10024C008F917F916F915F914F913F912F910F9073
:08025C000FBE0F901F901895D2
:100264008630D1F028F4823069F0833031F008957B
:10027400873069F08830A9F0089563E082E00E9435
:10028400C700089562E083E00E94C700089567E014
:1002940083E00E94C700089566E084E00E94C700DE
:1002A400089563E082E00E94C70062E083E00E9458
:1002B400C70067E083E00E94C70066E084E00E9414
:0402C400C7000895D2
:1002C80093B7977B93BF823041F0833051F08130F0
:1002D80059F483B7806483BF07C083B7886083BF3E
:1002E80003C083B7886483BF83B7887F83BF83B71E
:0C02F800682B63BF89B7816089BF08953F
:1003040041E063E082E00E94570041E062E083E064
:100314000E94570041E067E083E00E94570041E0FB
:0A03240066E084E00E94570008958F
:10032E000E94820165E080E00E9464017894FFCF14
:04033E000C9400001B
:00000001FF
