:100000000C942D000C9470020C9470020C947002ED
:100010000C9470020C9470020C9470020C94700298
:100020000C9470020C9470020C9419010C947002E0
:100030000C9470020C9470020C9470020C94700278
:100040000C9470020C9470020C9470020C94700268
:100050000C94700200600068800011241FBECFE580
:10006000D8E0DEBFCDBFE4E5F0E040E017C0B591D9
:10007000A59135912591059107FD0CC0959185912C
:10008000EF01F92FE82F05900D92A217B307D9F7CA
:10009000FE0104C01D92A217B307E1F7E935F4078A
:0E00A00031F70E94DC010C945500F894FFCF5C
:1000AE00823019F118F4813039F008958330B1F1AE
:1000BE00843009F44CC00895442359F02AB381E0EA
:1000CE0090E002C0880F991F6A95E2F7822B8ABBD7
:1000DE0008952AB381E090E002C0880F991F6A95B7
:1000EE00E2F7809582238ABB0895442359F027B303
:1000FE0081E090E002C0880F991F6A95E2F7822B8B
:10010E0087BB089527B381E090E002C0880F991F46
:10011E006A95E2F78095822387BB0895442359F0B0
:10012E0024B381E090E002C0880F991F6A95E2F730
:10013E00822B84BB089524B381E090E002C0880F27
:10014E00991F6A95E2F78095822384BB0895442314
:10015E0059F021B381E090E002C0880F991F6A9593
:10016E00E2F7822B81BB089521B381E090E002C0BB
:10017E00880F991F6A95E2F78095822381BB0895B7
:10018E0041E064E081E00E94570041E065E081E0DB
:10019E000E94570041E066E081E00E94570041E076
:1001AE0067E081E00E94570041E062E082E00E9439
:1001BE00570041E061E082E00E9457008FE39CE926
:1001CE000197F1F700C0000082E00E9428028FE93B
:1001DE009FE00197F1F700C0000088E20E9428021C
:1001EE008FE99FE00197F1F700C000008CE00E94BC
:1001FE0028028FE99FE00197F1F700C0000086E02A
:10020E000E9428028FE99FE00197F1F700C00000DD
:10021E009FEF29EF80E0915020408040E1F700C031
:04022E00000008952F
:100232001F920F920FB60F9211248F939F9380916A
:100242006600909167000196909367008093660024
:100252008D379105B9F58091640090916500019602
:100262008C33910529F0909365008093640026C039
:100272001092650010926400809162009091630078
:1002820001968C33910529F090936300809362006C
:1002920015C01092630010926200809160009091EC
:1002A200610001968831910529F090936100809355
:1002B200600004C01092610010926000109267000A
:1002C200109266009F918F910F900FBE0F901F901A
:0202D20018957D
:1002D4008230A9F018F4813031F008958330D9F0D8
:1002E400843029F108952BB381E090E002C0880F97
:1002F400991F6A95E2F7809582238BBB089528B3F2
:1003040081E090E002C0880F991F6A95E2F780951A
:10031400822388BB089525B381E090E002C0880F52
:10032400991F6A95E2F78095822385BB089522B3CD
:1003340081E090E002C0880F991F6A95E2F78095EA
:06034400822382BB089534
:10034A008230A1F018F4813031F008958330C9F079
:10035A00843011F108952BB381E090E002C0880F38
:10036A00991F6A95E2F7822B8BBB089528B381E027
:10037A0090E002C0880F991F6A95E2F7822B88BB2A
:10038A00089525B381E090E002C0880F991F6A950D
:10039A00E2F7822B85BB089522B381E090E002C088
:0E03AA00880F991F6A95E2F7822B82BB089597
:1003B8000E9465020E94C70065E083E00E94020275
:1003C80085E00E94720282E00E94430278949AE0DB
:1003D80083E29CBF2FEF33ED40E321503040404093
:1003E800E1F700C000008CBF2FEF33ED40E3215050
:0C03F80030404040E1F700C00000EBCFB7
:1004040093B7977B93BF813051F028F0823059F035
:10041400833091F014C089B7816089BF10C083B75D
:10042400806483BF0CC083B7886083BF89B7826050
:1004340089BF8FEF8CBF03C083B7886483BF83B742
:0C044400887F83BF83B7682B63BF0895D7
:10045000CF93C82F61E082E00E946A018BB39C2F8A
:10046000907F8F70892B8BBB0E9456022BB330E19B
:10047000C39FC0011124922F9F70892B8BBB0E94B8
:060480005602CF91089521
:10048600CF93C82F41E063E082E00E94570083B714
:100496008F7C83BF23B730E1C39FC0011124822B19
:0604A60083BFCF91089511
:1004AC0062E082E00E94A5018FE19EE40197F1F7E2
:0E04BC0000C0000062E082E00E946A01089524
:1004CA0040E060E084E00E94570040E061E084E0A0
:0604DA000E945700089586
:0404E0000C94000078
:0404E4008CBF08952C
:00000001FF
