:100000000C942A000C945A020C945A020C945A0232
:100010000C945A020C945A020C945A020C945A02F0
:100020000C945A020C945A020C945A020C945A02E0
:100030000C945A020C945A020C945A020C945A02D0
:100040000C945A020C945A020C945A020C945A02C0
:100050000C945A0211241FBECFE5D8E0DEBFCDBFFD
:10006000E4E5F0E040E017C0B591A5913591259108
:10007000059107FD0CC095918591EF01F92FE82FAF
:1000800005900D92A217B307D9F7FE0104C01D9287
:10009000A217B307E1F7E435F40731F70E94DB015B
:0800A0000C945200F894FFCF0C
:1000A800823019F118F4813039F008958330B1F1B4
:1000B800843009F44CC00895442359F02AB381E0F0
:1000C80090E002C0880F991F6A95E2F7822B8ABBDD
:1000D80008952AB381E090E002C0880F991F6A95BD
:1000E800E2F7809582238ABB0895442359F027B309
:1000F80081E090E002C0880F991F6A95E2F7822B91
:1001080087BB089527B381E090E002C0880F991F4C
:100118006A95E2F78095822387BB0895442359F0B6
:1001280024B381E090E002C0880F991F6A95E2F736
:10013800822B84BB089524B381E090E002C0880F2D
:10014800991F6A95E2F78095822384BB089544231A
:1001580059F021B381E090E002C0880F991F6A9599
:10016800E2F7822B81BB089521B381E090E002C0C1
:10017800880F991F6A95E2F78095822381BB0895BD
:1001880041E064E081E00E94540041E065E081E0E4
:100198000E94540041E066E081E00E94540041E082
:1001A80067E081E00E94540041E062E082E00E9442
:1001B800540041E061E082E00E9454008FE39CE932
:1001C8000197F1F700C0000082E00E94A5018FE9C5
:1001D8009FE00197F1F700C0000088E20E94A501A6
:1001E8008FE99FE00197F1F700C000008CE00E94C2
:1001F800A5018FE99FE00197F1F700C0000086E0B4
:100208000E94A5018FE99FE00197F1F700C0000067
:100218009FEF29EF80E0915020408040E1F700C037
:040228000000089535
:10022C008230A9F018F4813031F008958330D9F080
:10023C00843029F108952BB381E090E002C0880F3F
:10024C00991F6A95E2F7809582238BBB089528B39A
:10025C0081E090E002C0880F991F6A95E2F78095C3
:10026C00822388BB089525B381E090E002C0880FFB
:10027C00991F6A95E2F78095822385BB089522B376
:10028C0081E090E002C0880F991F6A95E2F7809593
:06029C00822382BB0895DD
:1002A2008230A1F018F4813031F008958330C9F022
:1002B200843011F108952BB381E090E002C0880FE1
:1002C200991F6A95E2F7822B8BBB089528B381E0D0
:1002D20090E002C0880F991F6A95E2F7822B88BBD3
:1002E200089525B381E090E002C0880F991F6A95B6
:1002F200E2F7822B85BB089522B381E090E002C031
:0E030200880F991F6A95E2F7822B82BB08953F
:10031000CF93DF93CDB7DEB72B970FB6F894DEBF40
:100320000FBECDBF4AE0BE016F5F7F4F0E944B0200
:10033000CE0101960E942E022B960FB6F894DEBFD6
:0A0340000FBECDBFDF91CF910895ED
:10034A00CF93C82F61E082E00E9416018BB39C2FE5
:10035A00907F8F70892B8BBB0E941F022BB330E1D9
:10036A00C39FC0011124922F9F70892B8BBB0E94BF
:06037A001F02CF9108955F
:10038000CF93C82F61E082E00E9451018BB39C2F74
:10039000907F8F70892B8BBB0E941F022BB330E1A3
:1003A000C39FC0011124922F9F70892B8BBB0E9489
:0603B0001F02CF91089529
:1003B6000E94C400C4E6D0E00E94560261E070E0EC
:1003C60080E090E00E943D02CE010E9488012FEF5E
:1003D60083ED90E3215080409040E1F700C000009B
:0403E6002196EACFA3
:1003EA00BB27FB015527AA27880F991FAA1FA41705
:1003FA0010F0A41B83955051B9F7A05DAA3308F0F9
:10040A00A95DA193009779F7B111B1931192CB012C
:04041A000C940F022D
:10041E00DC01FC01672F71917723E1F7329704C05D
:10042E007C916D9370836291AE17BF07C8F30895E8
:10043E0062E082E00E9451018FE19EE40197F1F7A4
:0E044E0000C0000062E082E00E9416010895E6
:10045C00CF93DF93EC018881882331F021960E94A1
:0E046C00C00189918111FBCFDF91CF910895DE
:10047A0060580024969587950794969587950794D2
:0C048A00982F802D862B0E94A50108955C
:10049600BB274A3031F4992322F4BDE29095819529
:0604A6009F4F0C94F601CB
:0804AC0081E00E94A501089502
:0404B4000C940000A4
:00000001FF
