:100000000C942D000C9458050C9458050C9458052C
:100010000C9458050C9458050C9458050C945805EC
:100020000C9458050C9458050C9458050C945805DC
:100030000C9458050C9458050C9458050C945805CC
:100040000C945A000C9458050C9458050C945805BF
:100050000C9458050060006A800011241FBECFE593
:10006000D8E0DEBFCDBFE4E5F0E040E017C0B591D9
:10007000A59135912591059107FD0CC0959185912C
:10008000EF01F92FE82F05900D92A217B307D9F7CA
:10009000FE0104C01D92A217B307E1F7E935F4078A
:0E00A00031F70E941D020C945500F894FFCF1A
:0500AE0054656D7000B7
:1000B4001F920F920FB60F921124EF92FF920F939B
:1000C4001F932F933F934F935F936F937F938F93DC
:1000D4009F93AF93BF93EF93FF93CF93DF93CDB7EA
:1000E400DEB72597DEBFCDBF2EEA30E040E085E0E5
:1000F400F901DE011196742F0E94D5040091680065
:1001040010916900000F111F005A1F4FF801E08081
:10011400F1800E946304F80191838083E091680078
:10012400F0916900EE0FFF1FE05AFF4F808191812B
:10013400E816F906D9F00E944605CE0101960E9400
:10014400C60480916800909169000E94F6038AE3D6
:100154000E942E04E0916800F0916900EE0FFF1FE9
:10016400E05AFF4F808191810E94F6030F900F9017
:100174000F900F900F90DF91CF91FF91EF91BF916E
:10018400AF919F918F917F916F915F914F913F912B
:100194002F911F910F91FF90EF900F900FBE0F9032
:0401A4001F901895FB
:1001A800823019F118F4813039F008958330B1F1B3
:1001B800843009F44CC00895442359F02AB381E0EF
:1001C80090E002C0880F991F6A95E2F7822B8ABBDC
:1001D80008952AB381E090E002C0880F991F6A95BC
:1001E800E2F7809582238ABB0895442359F027B308
:1001F80081E090E002C0880F991F6A95E2F7822B90
:1002080087BB089527B381E090E002C0880F991F4B
:100218006A95E2F78095822387BB0895442359F0B5
:1002280024B381E090E002C0880F991F6A95E2F735
:10023800822B84BB089524B381E090E002C0880F2C
:10024800991F6A95E2F78095822384BB0895442319
:1002580059F021B381E090E002C0880F991F6A9598
:10026800E2F7822B81BB089521B381E090E002C0C0
:10027800880F991F6A95E2F78095822381BB0895BC
:1002880010C00E94320558F00E942B0540F029F456
:100298005F3F29F00C94400551110C943A050C94D9
:1002A80055050E94D40368F39923B1F3552391F3BC
:1002B800951B550BBB27AA2762177307840738F0CD
:1002C8009F5F5F4F220F331F441FAA1FA9F335D02A
:1002D8000E2E3AF0E0E832D091505040E695001CDE
:1002E800CAF72BD0FE2F29D0660F771F881FBB1F98
:1002F800261737074807AB07B0E809F0BB0B802D76
:10030800BF01FF2793585F4F3AF09E3F510578F0A1
:100318000C9440050C943A055F3FE4F3983ED4F3FF
:10032800869577956795B795F7959F5FC9F7880F75
:10033800911D9695879597F90895E1E0660F771FC7
:10034800881FBB1F621773078407BA0720F0621B58
:0E035800730B840BBA0BEE1F88F7E095089527
:100366000FC00E942B0538F00E94320520F095231D
:1003760011F00C9440050C94550511240C943A0583
:100386000E94D40370F3959FC1F3950F50E0551F5B
:10039600629FF001729FBB27F00DB11D639FAA27D4
:1003A600F00DB11DAA1F649F6627B00DA11D661F23
:1003B600829F2227B00DA11D621F739FB00DA11D44
:1003C600621F839FA00D611D221F749F3327A00DFE
:1003D600611D231F849F600D211D822F762F6A2F9A
:1003E60011249F5750409AF0F1F088234AF0EE0FFF
:1003F600FF1FBB1F661F771F881F91505040A9F72C
:100406009E3F510580F00C9440050C943A055F3FE1
:10041600E4F3983ED4F3869577956795B795F79567
:10042600E7959F5FC1F7FE2B880F911D96958795DF
:0404360097F9089595
:10043A000E94EE040E946F0280E00E941D057894DB
:10044A00C8E6D0E080E00E94E204892BC9F08091DE
:10045A00680090916900181619062CF40197909378
:10046A0069008093680088810E9452052FEF83EC0F
:10047A0099E0215080409040E1F700C0000020C080
:10048A0081E00E94E204892BC9F080916800909172
:10049A006900833091052CF401969093690080934A
:1004AA00680088810E9452052FEF83EC99E0215061
:1004BA0080409040E1F700C0000002C00E945C0545
:1004CA002FEF81EE94E0215080409040E1F700C088
:0404DA000000B8CF97
:1004DE0041E064E081E00E94D40041E065E081E00B
:1004EE000E94D40041E066E081E00E94D40041E029
:1004FE0067E081E00E94D40041E062E082E00E9469
:10050E00D40041E061E082E00E94D4008FE39CE9D8
:10051E000197F1F700C0000082E00E9413048FE9FA
:10052E009FE00197F1F700C0000088E20E941304DB
:10053E008FE99FE00197F1F700C000008CE00E9468
:10054E0013048FE99FE00197F1F700C0000086E0E9
:10055E000E9413048FE99FE00197F1F700C000009D
:10056E009FEF29EF80E0915020408040E1F700C0DE
:04057E0000000895DC
:10058200E89409C097FB3EF490958095709561952B
:100592007F4F8F4F9F4F9923A9F0F92F96E9BB27E1
:1005A2009395F695879577956795B795F111F8CF5D
:1005B200FAF4BB0F11F460FF1BC06F5F7F4F8F4FC8
:1005C2009F4F16C0882311F096E911C0772321F0BE
:1005D2009EE8872F762F05C0662371F096E8862F56
:1005E20070E060E02AF09A95660F771F881FDAF7AD
:0A05F200880F9695879597F90895F4
:1005FC008230A9F018F4813031F008958330D9F0AD
:10060C00843029F108952BB381E090E002C0880F6B
:10061C00991F6A95E2F7809582238BBB089528B3C6
:10062C0081E090E002C0880F991F6A95E2F78095EF
:10063C00822388BB089525B381E090E002C0880F27
:10064C00991F6A95E2F78095822385BB089522B3A2
:10065C0081E090E002C0880F991F6A95E2F78095BF
:06066C00822382BB089509
:100672008230A1F018F4813031F008958330C9F04E
:10068200843011F108952BB381E090E002C0880F0D
:10069200991F6A95E2F7822B8BBB089528B381E0FC
:1006A20090E002C0880F991F6A95E2F7822B88BBFF
:1006B200089525B381E090E002C0880F991F6A95E2
:1006C200E2F7822B85BB089522B381E090E002C05D
:0E06D200880F991F6A95E2F7822B82BB08956C
:1006E000823099F018F4813031F02DC08330B9F0A8
:1006F0008430F9F028C029B381E090E002C0880F6F
:10070000991F6A95E2F78223089526B381E090E06D
:1007100002C0880F991F6A95E2F78223089523B3D8
:1007200081E090E002C0880F991F6A95E2F782236A
:10073000089520B381E090E002C0880F991F6A9568
:0A074000E2F78223089580E0089597
:10074A000E94DC0388F09F5798F0B92F9927B75178
:10075A00B0F0E1F0660F771F881F991F1AF0BA955B
:10076A00C9F714C0B13091F00E943905B1E008957B
:10077A000C943905672F782F8827B85F39F0B93F6D
:10078A00CCF3869577956795B395D9F73EF490950E
:0E079A008095709561957F4F8F4F9F4F08950A
:1007A80057FD9058440F551F59F05F3F71F047951A
:1007B800880F97FB991F61F09F3F79F087950895FF
:1007C800121613061406551FF2CF4695F1DF08C01E
:1007D800161617061806991FF1CF8695710561053B
:0407E80008940895D4
:1007EC00CF93DF93CDB7DEB72B970FB6F894DEBF60
:1007FC000FBECDBF4AE0BE016F5F7F4F0E94040564
:10080C00CE0101960E94C6042B960FB6F894DEBF5B
:0A081C000FBECDBFDF91CF9108950C
:10082600CF93C82F61E082E00E94FE028BB39C2F1B
:10083600907F8F70892B8BBB0E94B7042BB330E15E
:10084600C39FC0011124922F9F70892B8BBB0E94DE
:06085600B704CF910895E4
:10085C00CF93C82F61E082E00E9439038BB39C2FA9
:10086C00907F8F70892B8BBB0E94B7042BB330E128
:10087C00C39FC0011124922F9F70892B8BBB0E94A8
:06088C00B704CF910895AE
:10089200BB27FB015527AA27880F991FAA1FA41758
:1008A20010F0A41B83955051B9F7A05DAA3308F04C
:1008B200A95DA193009779F7B111B1931192CB0180
:0408C2000C94A704E7
:1008C6000E949704BC01990F880B990B0E94C302E2
:1008D60020E030E040E251E40E944A050E942405EF
:0408E600CB010895A5
:1008EA00CF93DF93D62FC42F0E940F058D2F0E941E
:1008FA0016058C2F0E94F9040E945A05DF91CF91A8
:02090A0008954E
:10090C00092E0394000C11F4882352F0BB0F40F411
:10091C00BF2B11F460FF04C06F5F7F4F8F4F9F4F51
:02092C0008952C
:10092E0064B175B180E090E00E94C1022AE137E621
:10093E004CE950E40E944E050E942405CB01089517
:10094E00DC01FC01672F71917723E1F7329704C028
:10095E007C916D9370836291AE17BF07C8F30895B3
:10096E0062E082E00E9439038FE19EE40197F1F785
:0E097E0000C0000062E082E00E94FE020895C8
:10098C00CF93DF93EC018881882331F021960E946C
:0E099C002E0489918111FBCFDF91CF91089538
:1009AA00992777FD05C005900D920197E1F7089503
:0A09BA0001900D920197E1F70895F6
:1009C400682F84E00E94700321E030E0811102C0AE
:0809D40020E030E0C9010895A4
:1009DC0040E060E084E00E94D40040E061E084E00C
:0609EC000E94D4000895F2
:1009F20097B19F7397B927B130E4839FC001112447
:060A0200822B87B9089564
:100A0800BB274A3031F4992322F4BDE290958195B1
:060A18009F4F0C944A04FC
:0E0A1E0097B1907E97B997B1892B87B908954B
:0E0A2C0096B1987F96B996B1892B86B9089538
:0E0A3A0040E067E00E9475040E945E0508958A
:0E0A48000E94A5036894B1110C943A0508951C
:0E0A560000240A9416161706180609060895BD
:0E0A640000240A9412161306140605060895BF
:0E0A7200E894BB2766277727CB0197F90895F4
:0C0A800097F99F6780E870E060E008953F
:080A8C0081E00E9413040895AB
:080A94000E9444010C94860449
:080A9C000E94B3010C948604D2
:060AA4000E940F050895F9
:060AAA009FEF80EC0895AF
:040AB0000C940000A2
:040AB400379A0895D0
:040AB800369A0895CD
:040ABC00339A0895CC
:00000001FF
